{
  "contractName": "Arbitrage",
  "abi": [
    {
      "inputs": [
        {
          "internalType": "address",
          "name": "_dexRouter1",
          "type": "address"
        },
        {
          "internalType": "address",
          "name": "_dexRouter2",
          "type": "address"
        },
        {
          "internalType": "address",
          "name": "_factory",
          "type": "address"
        },
        {
          "internalType": "string",
          "name": "_assest",
          "type": "string"
        },
        {
          "internalType": "string",
          "name": "_base",
          "type": "string"
        }
      ],
      "stateMutability": "nonpayable",
      "type": "constructor"
    },
    {
      "anonymous": false,
      "inputs": [
        {
          "indexed": false,
          "internalType": "string",
          "name": "assest",
          "type": "string"
        },
        {
          "indexed": false,
          "internalType": "string",
          "name": "base",
          "type": "string"
        },
        {
          "indexed": false,
          "internalType": "uint256",
          "name": "profit",
          "type": "uint256"
        },
        {
          "indexed": false,
          "internalType": "bool",
          "name": "success",
          "type": "bool"
        }
      ],
      "name": "TradeSucces",
      "type": "event"
    },
    {
      "inputs": [],
      "name": "dexRouter1",
      "outputs": [
        {
          "internalType": "address",
          "name": "",
          "type": "address"
        }
      ],
      "stateMutability": "view",
      "type": "function"
    },
    {
      "inputs": [],
      "name": "dexRouter2",
      "outputs": [
        {
          "internalType": "address",
          "name": "",
          "type": "address"
        }
      ],
      "stateMutability": "view",
      "type": "function"
    },
    {
      "inputs": [],
      "name": "factory",
      "outputs": [
        {
          "internalType": "address",
          "name": "",
          "type": "address"
        }
      ],
      "stateMutability": "view",
      "type": "function"
    },
    {
      "stateMutability": "payable",
      "type": "receive"
    },
    {
      "inputs": [
        {
          "internalType": "address",
          "name": "_router",
          "type": "address"
        },
        {
          "internalType": "address",
          "name": "_token1",
          "type": "address"
        },
        {
          "internalType": "address",
          "name": "_token2",
          "type": "address"
        },
        {
          "internalType": "uint256",
          "name": "_amount",
          "type": "uint256"
        }
      ],
      "name": "getAmountOutMin",
      "outputs": [
        {
          "internalType": "uint256",
          "name": "",
          "type": "uint256"
        }
      ],
      "stateMutability": "view",
      "type": "function"
    },
    {
      "inputs": [
        {
          "internalType": "address",
          "name": "_token1",
          "type": "address"
        },
        {
          "internalType": "address",
          "name": "_token2",
          "type": "address"
        },
        {
          "internalType": "uint256",
          "name": "_amount",
          "type": "uint256"
        }
      ],
      "name": "estimateDualDexTrade",
      "outputs": [
        {
          "internalType": "uint256",
          "name": "",
          "type": "uint256"
        }
      ],
      "stateMutability": "view",
      "type": "function"
    },
    {
      "inputs": [
        {
          "internalType": "address",
          "name": "_token1",
          "type": "address"
        },
        {
          "internalType": "address",
          "name": "_token2",
          "type": "address"
        },
        {
          "internalType": "uint256",
          "name": "_amount",
          "type": "uint256"
        },
        {
          "internalType": "enum Arbitrage.STATE",
          "name": "_dexstate",
          "type": "uint8"
        }
      ],
      "name": "dualDexTrade",
      "outputs": [],
      "stateMutability": "nonpayable",
      "type": "function"
    },
    {
      "inputs": [
        {
          "internalType": "address",
          "name": "_tokenContractAddress",
          "type": "address"
        }
      ],
      "name": "getBalance",
      "outputs": [
        {
          "internalType": "uint256",
          "name": "",
          "type": "uint256"
        }
      ],
      "stateMutability": "view",
      "type": "function"
    },
    {
      "inputs": [],
      "name": "recoverEth",
      "outputs": [],
      "stateMutability": "nonpayable",
      "type": "function"
    },
    {
      "inputs": [
        {
          "internalType": "address",
          "name": "tokenAddress",
          "type": "address"
        }
      ],
      "name": "recoverTokens",
      "outputs": [],
      "stateMutability": "nonpayable",
      "type": "function"
    }
  ],
  "bytecode": "0x60806040523480156200001157600080fd5b506040516200245938038062002459833981810160405281019062000037919062000429565b81600490805190602001906200004f92919062000177565b5080600390805190602001906200006892919062000177565b5084600160006101000a81548173ffffffffffffffffffffffffffffffffffffffff021916908373ffffffffffffffffffffffffffffffffffffffff16021790555083600160006101000a81548173ffffffffffffffffffffffffffffffffffffffff021916908373ffffffffffffffffffffffffffffffffffffffff160217905550826000806101000a81548173ffffffffffffffffffffffffffffffffffffffff021916908373ffffffffffffffffffffffffffffffffffffffff16021790555033600560006101000a81548173ffffffffffffffffffffffffffffffffffffffff021916908373ffffffffffffffffffffffffffffffffffffffff160217905550505050505062000554565b82805462000185906200051e565b90600052602060002090601f016020900481019282620001a95760008555620001f5565b82601f10620001c457805160ff1916838001178555620001f5565b82800160010185558215620001f5579182015b82811115620001f4578251825591602001919060010190620001d7565b5b50905062000204919062000208565b5090565b5b808211156200022357600081600090555060010162000209565b5090565b6000604051905090565b600080fd5b600080fd5b600073ffffffffffffffffffffffffffffffffffffffff82169050919050565b600062000268826200023b565b9050919050565b6200027a816200025b565b81146200028657600080fd5b50565b6000815190506200029a816200026f565b92915050565b600080fd5b600080fd5b6000601f19601f8301169050919050565b7f4e487b7100000000000000000000000000000000000000000000000000000000600052604160045260246000fd5b620002f582620002aa565b810181811067ffffffffffffffff82111715620003175762000316620002bb565b5b80604052505050565b60006200032c62000227565b90506200033a8282620002ea565b919050565b600067ffffffffffffffff8211156200035d576200035c620002bb565b5b6200036882620002aa565b9050602081019050919050565b60005b838110156200039557808201518184015260208101905062000378565b83811115620003a5576000848401525b50505050565b6000620003c2620003bc846200033f565b62000320565b905082815260208101848484011115620003e157620003e0620002a5565b5b620003ee84828562000375565b509392505050565b600082601f8301126200040e576200040d620002a0565b5b815162000420848260208601620003ab565b91505092915050565b600080600080600060a0868803121562000448576200044762000231565b5b6000620004588882890162000289565b95505060206200046b8882890162000289565b94505060406200047e8882890162000289565b935050606086015167ffffffffffffffff811115620004a257620004a162000236565b5b620004b088828901620003f6565b925050608086015167ffffffffffffffff811115620004d457620004d362000236565b5b620004e288828901620003f6565b9150509295509295909350565b7f4e487b7100000000000000000000000000000000000000000000000000000000600052602260045260246000fd5b600060028204905060018216806200053757607f821691505b602082108114156200054e576200054d620004ef565b5b50919050565b611ef580620005646000396000f3fe6080604052600436106100a7576000357c010000000000000000000000000000000000000000000000000000000090048063465903e311610076578063465903e3146101c3578063bcdb446b146101ee578063c45a015514610205578063e6d6eb5d14610230578063f8b2cb4f1461026d57610104565b806316114acd1461010957806321cd9b44146101325780632d0ed13a1461015b57806343cf6f241461018657610104565b366101045734600860003373ffffffffffffffffffffffffffffffffffffffff1673ffffffffffffffffffffffffffffffffffffffff16815260200190815260200160002060008282546100fb919061148f565b92505081905550005b600080fd5b34801561011557600080fd5b50610130600480360381019061012b9190611557565b6102aa565b005b34801561013e57600080fd5b50610159600480360381019061015491906115d5565b610473565b005b34801561016757600080fd5b50610170610b4c565b60405161017d919061164b565b60405180910390f35b34801561019257600080fd5b506101ad60048036038101906101a89190611666565b610b72565b6040516101ba91906116dc565b60405180910390f35b3480156101cf57600080fd5b506101d8610d35565b6040516101e5919061164b565b60405180910390f35b3480156101fa57600080fd5b50610203610d5b565b005b34801561021157600080fd5b5061021a610e4b565b604051610227919061164b565b60405180910390f35b34801561023c57600080fd5b50610257600480360381019061025291906116f7565b610e6f565b60405161026491906116dc565b60405180910390f35b34801561027957600080fd5b50610294600480360381019061028f9190611557565b610ee0565b6040516102a191906116dc565b60405180910390f35b600560009054906101000a900473ffffffffffffffffffffffffffffffffffffffff1673ffffffffffffffffffffffffffffffffffffffff163373ffffffffffffffffffffffffffffffffffffffff161461033a576040517f08c379a000000000000000000000000000000000000000000000000000000000815260040161033190611781565b60405180910390fd5b60008190508073ffffffffffffffffffffffffffffffffffffffff1663a9059cbb338373ffffffffffffffffffffffffffffffffffffffff166370a08231306040518263ffffffff167c01000000000000000000000000000000000000000000000000000000000281526004016103b1919061164b565b602060405180830381865afa1580156103ce573d6000803e3d6000fd5b505050506040513d601f19601f820116820180604052508101906103f291906117b6565b6040518363ffffffff167c010000000000000000000000000000000000000000000000000000000002815260040161042b9291906117e3565b6020604051808303816000875af115801561044a573d6000803e3d6000fd5b505050506040513d601f19601f8201168201806040525081019061046e9190611844565b505050565b600560009054906101000a900473ffffffffffffffffffffffffffffffffffffffff1673ffffffffffffffffffffffffffffffffffffffff163373ffffffffffffffffffffffffffffffffffffffff1614610503576040517f08c379a00000000000000000000000000000000000000000000000000000000081526004016104fa90611781565b60405180910390fd5b60008473ffffffffffffffffffffffffffffffffffffffff166370a08231306040518263ffffffff167c010000000000000000000000000000000000000000000000000000000002815260040161055a919061164b565b602060405180830381865afa158015610577573d6000803e3d6000fd5b505050506040513d601f19601f8201168201806040525081019061059b91906117b6565b905060008473ffffffffffffffffffffffffffffffffffffffff166370a08231306040518263ffffffff167c01000000000000000000000000000000000000000000000000000000000281526004016105f4919061164b565b602060405180830381865afa158015610611573d6000803e3d6000fd5b505050506040513d601f19601f8201168201806040525081019061063591906117b6565b905082600760006101000a81548160ff0219169083600181111561065c5761065b611871565b5b02179055506000600181111561067557610674611871565b5b600760009054906101000a900460ff16600181111561069757610696611871565b5b14156108dd576106cb600160009054906101000a900473ffffffffffffffffffffffffffffffffffffffff16878787610f84565b5060008573ffffffffffffffffffffffffffffffffffffffff166370a08231306040518263ffffffff167c0100000000000000000000000000000000000000000000000000000000028152600401610723919061164b565b602060405180830381865afa158015610740573d6000803e3d6000fd5b505050506040513d601f19601f8201168201806040525081019061076491906117b6565b90506000828261077491906118a0565b90506107a4600260009054906101000a900473ffffffffffffffffffffffffffffffffffffffff16888a84610f84565b5060008873ffffffffffffffffffffffffffffffffffffffff166370a08231306040518263ffffffff167c01000000000000000000000000000000000000000000000000000000000281526004016107fc919061164b565b602060405180830381865afa158015610819573d6000803e3d6000fd5b505050506040513d601f19601f8201168201806040525081019061083d91906117b6565b9050848111610881576040517f08c379a000000000000000000000000000000000000000000000000000000000815260040161087890611920565b60405180910390fd5b848161088d91906118a0565b6006819055507f34869f9170b7cd7feed82302929f46dc31417cc806c8bf12091d690b8cb02c1e6004600360065460016040516108cd9493929190611a45565b60405180910390a1505050610b19565b61090b600260009054906101000a900473ffffffffffffffffffffffffffffffffffffffff16878787610f84565b5060008573ffffffffffffffffffffffffffffffffffffffff166370a08231306040518263ffffffff167c0100000000000000000000000000000000000000000000000000000000028152600401610963919061164b565b602060405180830381865afa158015610980573d6000803e3d6000fd5b505050506040513d601f19601f820116820180604052508101906109a491906117b6565b9050600082826109b491906118a0565b90506109e4600160009054906101000a900473ffffffffffffffffffffffffffffffffffffffff16888a84610f84565b5060008873ffffffffffffffffffffffffffffffffffffffff166370a08231306040518263ffffffff167c0100000000000000000000000000000000000000000000000000000000028152600401610a3c919061164b565b602060405180830381865afa158015610a59573d6000803e3d6000fd5b505050506040513d601f19601f82011682018060405250810190610a7d91906117b6565b9050848111610ac1576040517f08c379a0000000000000000000000000000000000000000000000000000000008152600401610ab890611920565b60405180910390fd5b8481610acd91906118a0565b6006819055507f34869f9170b7cd7feed82302929f46dc31417cc806c8bf12091d690b8cb02c1e600460036006546001604051610b0d9493929190611a45565b60405180910390a15050505b6001600760006101000a81548160ff02191690836001811115610b3f57610b3e611871565b5b0217905550505050505050565b600260009054906101000a900473ffffffffffffffffffffffffffffffffffffffff1681565b60006060600267ffffffffffffffff811115610b9157610b90611a98565b5b604051908082528060200260200182016040528015610bbf5781602001602082028036833780820191505090505b5090508481600081518110610bd757610bd6611ac7565b5b602002602001019073ffffffffffffffffffffffffffffffffffffffff16908173ffffffffffffffffffffffffffffffffffffffff16815250508381600181518110610c2657610c25611ac7565b5b602002602001019073ffffffffffffffffffffffffffffffffffffffff16908173ffffffffffffffffffffffffffffffffffffffff168152505060008673ffffffffffffffffffffffffffffffffffffffff1663d06ca61f85846040518363ffffffff167c0100000000000000000000000000000000000000000000000000000000028152600401610cb9929190611bb4565b600060405180830381865afa158015610cd6573d6000803e3d6000fd5b505050506040513d6000823e3d601f19601f82011682018060405250810190610cff9190611d0e565b90508060018351610d1091906118a0565b81518110610d2157610d20611ac7565b5b602002602001015192505050949350505050565b600160009054906101000a900473ffffffffffffffffffffffffffffffffffffffff1681565b600560009054906101000a900473ffffffffffffffffffffffffffffffffffffffff1673ffffffffffffffffffffffffffffffffffffffff163373ffffffffffffffffffffffffffffffffffffffff1614610deb576040517f08c379a0000000000000000000000000000000000000000000000000000000008152600401610de290611781565b60405180910390fd5b3373ffffffffffffffffffffffffffffffffffffffff166108fc3073ffffffffffffffffffffffffffffffffffffffff16319081150290604051600060405180830381858888f19350505050158015610e48573d6000803e3d6000fd5b50565b60008054906101000a900473ffffffffffffffffffffffffffffffffffffffff1681565b600080610ea0600160009054906101000a900473ffffffffffffffffffffffffffffffffffffffff16868686610b72565b90506000610ed2600260009054906101000a900473ffffffffffffffffffffffffffffffffffffffff16868885610b72565b905080925050509392505050565b6000808273ffffffffffffffffffffffffffffffffffffffff166370a08231306040518263ffffffff167c0100000000000000000000000000000000000000000000000000000000028152600401610f38919061164b565b602060405180830381865afa158015610f55573d6000803e3d6000fd5b505050506040513d601f19601f82011682018060405250810190610f7991906117b6565b905080915050919050565b60008373ffffffffffffffffffffffffffffffffffffffff166323b872dd3330856040518463ffffffff167c0100000000000000000000000000000000000000000000000000000000028152600401610fdf93929190611d57565b6020604051808303816000875af1158015610ffe573d6000803e3d6000fd5b505050506040513d601f19601f820116820180604052508101906110229190611844565b508373ffffffffffffffffffffffffffffffffffffffff1663095ea7b386846040518363ffffffff167c010000000000000000000000000000000000000000000000000000000002815260040161107a9291906117e3565b6020604051808303816000875af1158015611099573d6000803e3d6000fd5b505050506040513d601f19601f820116820180604052508101906110bd9190611844565b506060600267ffffffffffffffff8111156110db576110da611a98565b5b6040519080825280602002602001820160405280156111095781602001602082028036833780820191505090505b509050848160008151811061112157611120611ac7565b5b602002602001019073ffffffffffffffffffffffffffffffffffffffff16908173ffffffffffffffffffffffffffffffffffffffff168152505083816001815181106111705761116f611ac7565b5b602002602001019073ffffffffffffffffffffffffffffffffffffffff16908173ffffffffffffffffffffffffffffffffffffffff168152505060008060009054906101000a900473ffffffffffffffffffffffffffffffffffffffff1673ffffffffffffffffffffffffffffffffffffffff1663e6a4390587876040518363ffffffff167c0100000000000000000000000000000000000000000000000000000000028152600401611224929190611d8e565b602060405180830381865afa158015611241573d6000803e3d6000fd5b505050506040513d601f19601f820116820180604052508101906112659190611dcc565b9050600073ffffffffffffffffffffffffffffffffffffffff168173ffffffffffffffffffffffffffffffffffffffff1614156112d7576040517f08c379a00000000000000000000000000000000000000000000000000000000081526004016112ce90611e45565b60405180910390fd5b60008773ffffffffffffffffffffffffffffffffffffffff1663d06ca61f86856040518363ffffffff167c0100000000000000000000000000000000000000000000000000000000028152600401611330929190611bb4565b600060405180830381865afa15801561134d573d6000803e3d6000fd5b505050506040513d6000823e3d601f19601f820116820180604052508101906113769190611d0e565b90508773ffffffffffffffffffffffffffffffffffffffff166338ed17398683600187516113a491906118a0565b815181106113b5576113b4611ac7565b5b602002602001015186306104b06040518663ffffffff167c01000000000000000000000000000000000000000000000000000000000281526004016113fe959493929190611e65565b6000604051808303816000875af115801561141d573d6000803e3d6000fd5b505050506040513d6000823e3d601f19601f820116820180604052508101906114469190611d0e565b5060019350505050949350505050565b6000819050919050565b7f4e487b7100000000000000000000000000000000000000000000000000000000600052601160045260246000fd5b600061149a82611456565b91506114a583611456565b9250827fffffffffffffffffffffffffffffffffffffffffffffffffffffffffffffffff038211156114da576114d9611460565b5b828201905092915050565b6000604051905090565b600080fd5b600080fd5b600073ffffffffffffffffffffffffffffffffffffffff82169050919050565b6000611524826114f9565b9050919050565b61153481611519565b811461153f57600080fd5b50565b6000813590506115518161152b565b92915050565b60006020828403121561156d5761156c6114ef565b5b600061157b84828501611542565b91505092915050565b61158d81611456565b811461159857600080fd5b50565b6000813590506115aa81611584565b92915050565b600281106115bd57600080fd5b50565b6000813590506115cf816115b0565b92915050565b600080600080608085870312156115ef576115ee6114ef565b5b60006115fd87828801611542565b945050602061160e87828801611542565b935050604061161f8782880161159b565b9250506060611630878288016115c0565b91505092959194509250565b61164581611519565b82525050565b6000602082019050611660600083018461163c565b92915050565b600080600080608085870312156116805761167f6114ef565b5b600061168e87828801611542565b945050602061169f87828801611542565b93505060406116b087828801611542565b92505060606116c18782880161159b565b91505092959194509250565b6116d681611456565b82525050565b60006020820190506116f160008301846116cd565b92915050565b6000806000606084860312156117105761170f6114ef565b5b600061171e86828701611542565b935050602061172f86828701611542565b92505060406117408682870161159b565b9150509250925092565b600082825260208201905092915050565b50565b600061176b60008361174a565b91506117768261175b565b600082019050919050565b6000602082019050818103600083015261179a8161175e565b9050919050565b6000815190506117b081611584565b92915050565b6000602082840312156117cc576117cb6114ef565b5b60006117da848285016117a1565b91505092915050565b60006040820190506117f8600083018561163c565b61180560208301846116cd565b9392505050565b60008115159050919050565b6118218161180c565b811461182c57600080fd5b50565b60008151905061183e81611818565b92915050565b60006020828403121561185a576118596114ef565b5b60006118688482850161182f565b91505092915050565b7f4e487b7100000000000000000000000000000000000000000000000000000000600052602160045260246000fd5b60006118ab82611456565b91506118b683611456565b9250828210156118c9576118c8611460565b5b828203905092915050565b7f54726164652052657665727465642c204e6f2050726f666974204d6164650000600082015250565b600061190a601e8361174a565b9150611915826118d4565b602082019050919050565b60006020820190508181036000830152611939816118fd565b9050919050565b7f4e487b7100000000000000000000000000000000000000000000000000000000600052602260045260246000fd5b6000600282049050600182168061198757607f821691505b6020821081141561199b5761199a611940565b5b50919050565b60008190508160005260206000209050919050565b600081546119c38161196f565b6119cd818661174a565b945060018216600081146119e857600181146119fa57611a2d565b60ff1983168652602086019350611a2d565b611a03856119a1565b60005b83811015611a2557815481890152600182019150602081019050611a06565b808801955050505b50505092915050565b611a3f8161180c565b82525050565b60006080820190508181036000830152611a5f81876119b6565b90508181036020830152611a7381866119b6565b9050611a8260408301856116cd565b611a8f6060830184611a36565b95945050505050565b7f4e487b7100000000000000000000000000000000000000000000000000000000600052604160045260246000fd5b7f4e487b7100000000000000000000000000000000000000000000000000000000600052603260045260246000fd5b600081519050919050565b600082825260208201905092915050565b6000819050602082019050919050565b611b2b81611519565b82525050565b6000611b3d8383611b22565b60208301905092915050565b6000602082019050919050565b6000611b6182611af6565b611b6b8185611b01565b9350611b7683611b12565b8060005b83811015611ba7578151611b8e8882611b31565b9750611b9983611b49565b925050600181019050611b7a565b5085935050505092915050565b6000604082019050611bc960008301856116cd565b8181036020830152611bdb8184611b56565b90509392505050565b600080fd5b6000601f19601f8301169050919050565b611c0382611be9565b810181811067ffffffffffffffff82111715611c2257611c21611a98565b5b80604052505050565b6000611c356114e5565b9050611c418282611bfa565b919050565b600067ffffffffffffffff821115611c6157611c60611a98565b5b602082029050602081019050919050565b600080fd5b6000611c8a611c8584611c46565b611c2b565b90508083825260208201905060208402830185811115611cad57611cac611c72565b5b835b81811015611cd65780611cc288826117a1565b845260208401935050602081019050611caf565b5050509392505050565b600082601f830112611cf557611cf4611be4565b5b8151611d05848260208601611c77565b91505092915050565b600060208284031215611d2457611d236114ef565b5b600082015167ffffffffffffffff811115611d4257611d416114f4565b5b611d4e84828501611ce0565b91505092915050565b6000606082019050611d6c600083018661163c565b611d79602083018561163c565b611d8660408301846116cd565b949350505050565b6000604082019050611da3600083018561163c565b611db0602083018461163c565b9392505050565b600081519050611dc68161152b565b92915050565b600060208284031215611de257611de16114ef565b5b6000611df084828501611db7565b91505092915050565b7f5468697320706f6f6c20646f6573206e6f742065786973740000000000000000600082015250565b6000611e2f60188361174a565b9150611e3a82611df9565b602082019050919050565b60006020820190508181036000830152611e5e81611e22565b9050919050565b600060a082019050611e7a60008301886116cd565b611e8760208301876116cd565b8181036040830152611e998186611b56565b9050611ea8606083018561163c565b611eb560808301846116cd565b969550505050505056fea2646970667358221220e58c7cd04f525d95ab0a978248475722f3c997fc510f1af0a7c8295d75f8721364736f6c634300080a0033",
  "immutableReferences": {},
  "source": "//SPDX-License-Identifier: UNLICENSED\r\npragma solidity >=0.5.0 <0.9.0;\r\nimport  '@uniswap/v2-periphery/contracts/interfaces/IUniswapV2Router02.sol';\r\nimport '@uniswap/v2-core/contracts/interfaces/IUniswapV2Pair.sol';\r\nimport '@uniswap/v2-periphery/contracts/interfaces/IUniswapV2Router01.sol';\r\nimport '@uniswap/v2-core/contracts/interfaces/IUniswapV2Factory.sol';\r\n\r\nimport \"@uniswap/v2-core/contracts/interfaces/IERC20.sol\";\r\n\r\ncontract Arbitrage {\r\n    address public factory;   // factory create exchange market for the token pair\r\n    uint constant deadline = 20 minutes; // transaction deadline\r\n    address public dexRouter1;\r\n    address public dexRouter2;\r\n    string base;\r\n    string assest;\r\n    address owner;\r\n    uint profit;\r\n\r\n    \r\n   //  IUniswapV2Router02 public dexRouter; // router of DEX using the uniswap protocol\r\n\r\n     event TradeSucces(\r\n          string assest,\r\n          string base,\r\n          uint profit,\r\n          bool success\r\n     );\r\n\r\n     enum STATE {\r\n         TRUE,\r\n         FALSE\r\n     }\r\n     STATE dex1state;\r\n\r\n      mapping(address => uint) _balance;\r\n      \r\n      constructor(address _dexRouter1,address _dexRouter2, address _factory, string memory _assest ,string memory _base){\r\n           assest =_assest;\r\n           base=_base;\r\n           dexRouter1 = _dexRouter1;\r\n           dexRouter1 = _dexRouter2;\r\n           factory =_factory;\r\n           owner=msg.sender;\r\n      }\r\n \r\n      modifier onlyOwner(){\r\n          require(msg.sender==owner,\"\");\r\n          _;\r\n      }\r\n\r\n       function swap(address _router,address _token1, address _token2, uint256 _amount) private returns(bool){\r\n           \r\n        IERC20(_token1).transferFrom(msg.sender,address(this), _amount); // transfer tokenIn from sender to the contract\r\n\t     \tIERC20(_token1).approve(_router, _amount); //approve dex to spend _amount \r\n\t    \taddress[] memory path; // list of token addresses\r\n\t    \tpath = new address[](2);\r\n\t    \tpath[0] = _token1;\r\n     \t\tpath[1] = _token2;\r\n\t\taddress pairAddress = IUniswapV2Factory(factory).getPair(_token1, _token2); //address of pool for both token pairs\r\n        require(pairAddress != address(0), 'This pool does not exist'); // check if such pool exist \r\n        uint256[] memory amountOutMins = IUniswapV2Router02(_router).getAmountsOut(_amount, path);\r\n\t\tIUniswapV2Router02(_router).swapExactTokensForTokens(_amount,amountOutMins[path.length - 1], path, address(this), deadline);\r\n\t    \r\n        return true;\r\n    }\r\n     \r\n      function getAmountOutMin( address _router,address _token1, address _token2, uint256 _amount) public view returns (uint256) {\r\n\t      \taddress[] memory path;\r\n\t      \tpath = new address[](2);\r\n\t      \tpath[0] = _token1;\r\n\t      \tpath[1] = _token2;\r\n\t      \tuint256[] memory amountOutMins = IUniswapV2Router02(_router).getAmountsOut(_amount, path);\r\n\t      \treturn amountOutMins[path.length -1];\r\n\t}\r\n   \r\n    function estimateDualDexTrade(address _token1, address _token2, uint256 _amount) external view returns (uint256) {\r\n\t\tuint256 amtBack1 = getAmountOutMin(dexRouter1, _token1, _token2, _amount);\r\n\t\tuint256 amtBack2 = getAmountOutMin(dexRouter2, _token2, _token1, amtBack1);\r\n\t\treturn amtBack2;\r\n\t}\r\n      \r\n    function dualDexTrade(address _token1, address _token2, uint256 _amount, STATE _dexstate) external onlyOwner {\r\n        uint startBalance = IERC20(_token1).balanceOf(address(this));\r\n        uint token2InitialBalance = IERC20(_token2).balanceOf(address(this));\r\n         dex1state =_dexstate;\r\n         if(dex1state ==STATE.TRUE) {\r\n        swap(dexRouter1,_token1, _token2,_amount);\r\n        uint token2Balance = IERC20(_token2).balanceOf(address(this));\r\n        uint tradeableAmount = token2Balance - token2InitialBalance;\r\n        swap(dexRouter2,_token2, _token1,tradeableAmount);\r\n        uint endBalance = IERC20(_token1).balanceOf(address(this));\r\n       require(endBalance > startBalance, \"Trade Reverted, No Profit Made\");\r\n       profit= endBalance -startBalance;\r\n       emit TradeSucces(assest,base,profit,true);\r\n       }\r\n       else{\r\n         swap(dexRouter2,_token1, _token2,_amount);\r\n         uint token2Balance = IERC20(_token2).balanceOf(address(this));\r\n         uint tradeableAmount = token2Balance - token2InitialBalance;\r\n         swap(dexRouter1,_token2, _token1,tradeableAmount);\r\n         uint endBalance = IERC20(_token1).balanceOf(address(this));\r\n         require(endBalance > startBalance, \"Trade Reverted, No Profit Made\");\r\n           profit= endBalance -startBalance;\r\n           emit TradeSucces(assest,base,profit,true);\r\n       }\r\n       dex1state =STATE.FALSE;\r\n\r\n    }\r\n    \r\n    function getBalance (address _tokenContractAddress) external view  returns (uint256) {\r\n\t\tuint balance = IERC20(_tokenContractAddress).balanceOf(address(this));\r\n\t\treturn balance;\r\n\t}\r\n\t\r\n\tfunction recoverEth() external onlyOwner {\r\n\t\tpayable(msg.sender).transfer(address(this).balance);\r\n\t}\r\n\r\n\tfunction recoverTokens(address tokenAddress) external onlyOwner {\r\n\t\tIERC20 token = IERC20(tokenAddress);\r\n\t\ttoken.transfer(msg.sender, token.balanceOf(address(this)));\r\n\t}\r\n\r\n\r\n    receive ()  payable external{\r\n       _balance[msg.sender] += msg.value;\r\n\r\n   }\r\n\r\n \r\n\r\n\r\n\r\n\r\n}",
  "sourcePath": "C:/Users/user/trading-bots/contracts/arbitrage-bot.sol",
  "compiler": {
    "name": "solc",
    "version": "0.8.10+commit.fc410830.Emscripten.clang"
  },
  "schemaVersion": "3.4.1",
  "updatedAt": "2022-03-25T14:06:03.784Z",
  "devdoc": {
    "kind": "dev",
    "methods": {},
    "version": 1
  },
  "userdoc": {
    "kind": "user",
    "methods": {},
    "version": 1
  }
}