{
  "contractName": "ArbitrageBot",
  "abi": [
    {
      "inputs": [
        {
          "internalType": "contract ISwapRouter",
          "name": "_Router1",
          "type": "address"
        },
        {
          "internalType": "address",
          "name": "_Router2",
          "type": "address"
        }
      ],
      "stateMutability": "nonpayable",
      "type": "constructor"
    },
    {
      "anonymous": false,
      "inputs": [
        {
          "indexed": false,
          "internalType": "string",
          "name": "assest",
          "type": "string"
        },
        {
          "indexed": false,
          "internalType": "string",
          "name": "base",
          "type": "string"
        },
        {
          "indexed": false,
          "internalType": "uint256",
          "name": "profit",
          "type": "uint256"
        },
        {
          "indexed": false,
          "internalType": "bool",
          "name": "success",
          "type": "bool"
        }
      ],
      "name": "TradeSucces",
      "type": "event"
    },
    {
      "inputs": [],
      "name": "Router2",
      "outputs": [
        {
          "internalType": "address",
          "name": "",
          "type": "address"
        }
      ],
      "stateMutability": "view",
      "type": "function"
    },
    {
      "inputs": [],
      "name": "name",
      "outputs": [
        {
          "internalType": "string",
          "name": "",
          "type": "string"
        }
      ],
      "stateMutability": "view",
      "type": "function"
    },
    {
      "inputs": [],
      "name": "owner",
      "outputs": [
        {
          "internalType": "address",
          "name": "",
          "type": "address"
        }
      ],
      "stateMutability": "view",
      "type": "function"
    },
    {
      "inputs": [],
      "name": "poolFee",
      "outputs": [
        {
          "internalType": "uint24",
          "name": "",
          "type": "uint24"
        }
      ],
      "stateMutability": "view",
      "type": "function"
    },
    {
      "inputs": [],
      "name": "swapRouter",
      "outputs": [
        {
          "internalType": "contract ISwapRouter",
          "name": "",
          "type": "address"
        }
      ],
      "stateMutability": "view",
      "type": "function"
    },
    {
      "stateMutability": "payable",
      "type": "receive"
    },
    {
      "inputs": [
        {
          "internalType": "address",
          "name": "_router",
          "type": "address"
        },
        {
          "internalType": "address",
          "name": "_token1",
          "type": "address"
        },
        {
          "internalType": "address",
          "name": "_token2",
          "type": "address"
        },
        {
          "internalType": "uint256",
          "name": "_amount",
          "type": "uint256"
        }
      ],
      "name": "getAmountOutMin",
      "outputs": [
        {
          "internalType": "uint256",
          "name": "",
          "type": "uint256"
        }
      ],
      "stateMutability": "view",
      "type": "function"
    },
    {
      "inputs": [
        {
          "internalType": "address",
          "name": "_pairAddress",
          "type": "address"
        }
      ],
      "name": "getSushiswapReserve",
      "outputs": [
        {
          "internalType": "uint256",
          "name": "",
          "type": "uint256"
        },
        {
          "internalType": "uint256",
          "name": "",
          "type": "uint256"
        },
        {
          "internalType": "uint256",
          "name": "",
          "type": "uint256"
        }
      ],
      "stateMutability": "view",
      "type": "function"
    },
    {
      "inputs": [
        {
          "internalType": "address",
          "name": "_token1",
          "type": "address"
        },
        {
          "internalType": "address",
          "name": "_token2",
          "type": "address"
        },
        {
          "internalType": "uint256",
          "name": "_amount",
          "type": "uint256"
        }
      ],
      "name": "UniswapToSushiwapTrade",
      "outputs": [],
      "stateMutability": "nonpayable",
      "type": "function"
    },
    {
      "inputs": [
        {
          "internalType": "address",
          "name": "_token1",
          "type": "address"
        },
        {
          "internalType": "address",
          "name": "_token2",
          "type": "address"
        },
        {
          "internalType": "uint256",
          "name": "_amount",
          "type": "uint256"
        }
      ],
      "name": "SushiwapToUniswapTrade",
      "outputs": [],
      "stateMutability": "nonpayable",
      "type": "function"
    },
    {
      "inputs": [
        {
          "internalType": "address",
          "name": "_tokenContractAddress",
          "type": "address"
        }
      ],
      "name": "getBalance",
      "outputs": [
        {
          "internalType": "uint256",
          "name": "",
          "type": "uint256"
        }
      ],
      "stateMutability": "view",
      "type": "function"
    },
    {
      "inputs": [],
      "name": "recoverEth",
      "outputs": [],
      "stateMutability": "nonpayable",
      "type": "function"
    },
    {
      "inputs": [
        {
          "internalType": "address",
          "name": "tokenAddress",
          "type": "address"
        }
      ],
      "name": "recoverTokens",
      "outputs": [],
      "stateMutability": "nonpayable",
      "type": "function"
    }
  ],
  "bytecode": "0x60806040523480156200001157600080fd5b506040516200292238038062002922833981810160405281019062000037919062000234565b81600160006101000a81548173ffffffffffffffffffffffffffffffffffffffff021916908373ffffffffffffffffffffffffffffffffffffffff16021790555080600260006101000a81548173ffffffffffffffffffffffffffffffffffffffff021916908373ffffffffffffffffffffffffffffffffffffffff1602179055506040518060400160405280600d81526020017f41726269747261676520426f7400000000000000000000000000000000000000815250600090805190602001906200010692919062000150565b5033600560006101000a81548173ffffffffffffffffffffffffffffffffffffffff021916908373ffffffffffffffffffffffffffffffffffffffff1602179055505050620002f1565b828054600181600116156101000203166002900490600052602060002090601f016020900481019282620001885760008555620001d4565b82601f10620001a357805160ff1916838001178555620001d4565b82800160010185558215620001d4579182015b82811115620001d3578251825591602001919060010190620001b6565b5b509050620001e39190620001e7565b5090565b5b8082111562000202576000816000905550600101620001e8565b5090565b6000815190506200021781620002bd565b92915050565b6000815190506200022e81620002d7565b92915050565b600080604083850312156200024857600080fd5b600062000258858286016200021d565b92505060206200026b8582860162000206565b9150509250929050565b600062000282826200029d565b9050919050565b6000620002968262000275565b9050919050565b600073ffffffffffffffffffffffffffffffffffffffff82169050919050565b620002c88162000275565b8114620002d457600080fd5b50565b620002e28162000289565b8114620002ee57600080fd5b50565b61262180620003016000396000f3fe6080604052600436106100c8576000357c01000000000000000000000000000000000000000000000000000000009004806343cf6f241161008157806343cf6f24146102335780638da5cb5b14610270578063ac48e0af1461029b578063bcdb446b146102c4578063c31c9c07146102db578063f8b2cb4f146103065761011c565b806306fdde0314610121578063089fe6aa1461014c5780630dff5ed51461017757806316114acd146101b657806331fa58d4146101df578063338765721461020a5761011c565b3661011c5734600760003373ffffffffffffffffffffffffffffffffffffffff1673ffffffffffffffffffffffffffffffffffffffff16815260200190815260200160002060008282540192505081905550005b600080fd5b34801561012d57600080fd5b50610136610343565b60405161014391906121c8565b60405180910390f35b34801561015857600080fd5b506101616103e1565b60405161016e9190612299565b60405180910390f35b34801561018357600080fd5b5061019e60048036038101906101999190611c98565b6103e7565b6040516101ad93929190612359565b60405180910390f35b3480156101c257600080fd5b506101dd60048036038101906101d89190611c98565b6104c9565b005b3480156101eb57600080fd5b506101f46106b0565b6040516102019190612125565b60405180910390f35b34801561021657600080fd5b50610231600480360381019061022c9190611d24565b6106d6565b005b34801561023f57600080fd5b5061025a60048036038101906102559190611cc1565b610b05565b60405161026791906122b4565b60405180910390f35b34801561027c57600080fd5b50610285610cb7565b6040516102929190612125565b60405180910390f35b3480156102a757600080fd5b506102c260048036038101906102bd9190611d24565b610cdd565b005b3480156102d057600080fd5b506102d961110c565b005b3480156102e757600080fd5b506102f06111fc565b6040516102fd91906121ad565b60405180910390f35b34801561031257600080fd5b5061032d60048036038101906103289190611c98565b611222565b60405161033a91906122b4565b60405180910390f35b60008054600181600116156101000203166002900480601f0160208091040260200160405190810160405280929190818152602001828054600181600116156101000203166002900480156103d95780601f106103ae576101008083540402835291602001916103d9565b820191906000526020600020905b8154815290600101906020018083116103bc57829003601f168201915b505050505081565b610bb881565b6000806000806000808673ffffffffffffffffffffffffffffffffffffffff16630902f1ac6040518163ffffffff167c010000000000000000000000000000000000000000000000000000000002815260040160606040518083038186803b15801561045257600080fd5b505afa158015610466573d6000803e3d6000fd5b505050506040513d601f19601f8201168201806040525081019061048a9190611ddd565b63ffffffff1692506dffffffffffffffffffffffffffff1692506dffffffffffffffffffffffffffff1692508282829550955095505050509193909250565b600560009054906101000a900473ffffffffffffffffffffffffffffffffffffffff1673ffffffffffffffffffffffffffffffffffffffff163373ffffffffffffffffffffffffffffffffffffffff1614610559576040517f08c379a00000000000000000000000000000000000000000000000000000000081526004016105509061225d565b60405180910390fd5b60008190508073ffffffffffffffffffffffffffffffffffffffff1663a9059cbb338373ffffffffffffffffffffffffffffffffffffffff166370a08231306040518263ffffffff167c01000000000000000000000000000000000000000000000000000000000281526004016105d09190612140565b60206040518083038186803b1580156105e857600080fd5b505afa1580156105fc573d6000803e3d6000fd5b505050506040513d601f19601f820116820180604052508101906106209190611e2c565b6040518363ffffffff167c010000000000000000000000000000000000000000000000000000000002815260040161065992919061215b565b602060405180830381600087803b15801561067357600080fd5b505af1158015610687573d6000803e3d6000fd5b505050506040513d601f19601f820116820180604052508101906106ab9190611db4565b505050565b600260009054906101000a900473ffffffffffffffffffffffffffffffffffffffff1681565b600560009054906101000a900473ffffffffffffffffffffffffffffffffffffffff1673ffffffffffffffffffffffffffffffffffffffff163373ffffffffffffffffffffffffffffffffffffffff1614610766576040517f08c379a000000000000000000000000000000000000000000000000000000000815260040161075d9061225d565b60405180910390fd5b60008373ffffffffffffffffffffffffffffffffffffffff166370a08231306040518263ffffffff167c01000000000000000000000000000000000000000000000000000000000281526004016107bd9190612140565b60206040518083038186803b1580156107d557600080fd5b505afa1580156107e9573d6000803e3d6000fd5b505050506040513d601f19601f8201168201806040525081019061080d9190611e2c565b905060008373ffffffffffffffffffffffffffffffffffffffff166370a08231306040518263ffffffff167c01000000000000000000000000000000000000000000000000000000000281526004016108669190612140565b60206040518083038186803b15801561087e57600080fd5b505afa158015610892573d6000803e3d6000fd5b505050506040513d601f19601f820116820180604052508101906108b69190611e2c565b90506108e6600160009054906101000a900473ffffffffffffffffffffffffffffffffffffffff168686866112d5565b5060008473ffffffffffffffffffffffffffffffffffffffff166370a08231306040518263ffffffff167c010000000000000000000000000000000000000000000000000000000002815260040161093e9190612140565b60206040518083038186803b15801561095657600080fd5b505afa15801561096a573d6000803e3d6000fd5b505050506040513d601f19601f8201168201806040525081019061098e9190611e2c565b9050600082820390506109c5600260009054906101000a900473ffffffffffffffffffffffffffffffffffffffff16878984611449565b60008773ffffffffffffffffffffffffffffffffffffffff166370a08231306040518263ffffffff167c0100000000000000000000000000000000000000000000000000000000028152600401610a1c9190612140565b60206040518083038186803b158015610a3457600080fd5b505afa158015610a48573d6000803e3d6000fd5b505050506040513d601f19601f82011682018060405250810190610a6c9190611e2c565b9050848111610ab0576040517f08c379a0000000000000000000000000000000000000000000000000000000008152600401610aa79061223d565b60405180910390fd5b8481036006819055507f34869f9170b7cd7feed82302929f46dc31417cc806c8bf12091d690b8cb02c1e600460036006546001604051610af394939291906121ea565b60405180910390a15050505050505050565b60006060600267ffffffffffffffff81118015610b2157600080fd5b50604051908082528060200260200182016040528015610b505781602001602082028036833780820191505090505b5090508481600081518110610b6157fe5b602002602001019073ffffffffffffffffffffffffffffffffffffffff16908173ffffffffffffffffffffffffffffffffffffffff16815250508381600181518110610ba957fe5b602002602001019073ffffffffffffffffffffffffffffffffffffffff16908173ffffffffffffffffffffffffffffffffffffffff168152505060608673ffffffffffffffffffffffffffffffffffffffff1663d06ca61f85846040518363ffffffff167c0100000000000000000000000000000000000000000000000000000000028152600401610c3c9291906122cf565b60006040518083038186803b158015610c5457600080fd5b505afa158015610c68573d6000803e3d6000fd5b505050506040513d6000823e3d601f19601f82011682018060405250810190610c919190611d73565b905080600183510381518110610ca357fe5b602002602001015192505050949350505050565b600560009054906101000a900473ffffffffffffffffffffffffffffffffffffffff1681565b600560009054906101000a900473ffffffffffffffffffffffffffffffffffffffff1673ffffffffffffffffffffffffffffffffffffffff163373ffffffffffffffffffffffffffffffffffffffff1614610d6d576040517f08c379a0000000000000000000000000000000000000000000000000000000008152600401610d649061225d565b60405180910390fd5b60008373ffffffffffffffffffffffffffffffffffffffff166370a08231306040518263ffffffff167c0100000000000000000000000000000000000000000000000000000000028152600401610dc49190612140565b60206040518083038186803b158015610ddc57600080fd5b505afa158015610df0573d6000803e3d6000fd5b505050506040513d601f19601f82011682018060405250810190610e149190611e2c565b905060008373ffffffffffffffffffffffffffffffffffffffff166370a08231306040518263ffffffff167c0100000000000000000000000000000000000000000000000000000000028152600401610e6d9190612140565b60206040518083038186803b158015610e8557600080fd5b505afa158015610e99573d6000803e3d6000fd5b505050506040513d601f19601f82011682018060405250810190610ebd9190611e2c565b9050610eed600260009054906101000a900473ffffffffffffffffffffffffffffffffffffffff16868686611449565b60008473ffffffffffffffffffffffffffffffffffffffff166370a08231306040518263ffffffff167c0100000000000000000000000000000000000000000000000000000000028152600401610f449190612140565b60206040518083038186803b158015610f5c57600080fd5b505afa158015610f70573d6000803e3d6000fd5b505050506040513d601f19601f82011682018060405250810190610f949190611e2c565b905060008282039050610fcb600160009054906101000a900473ffffffffffffffffffffffffffffffffffffffff168789846112d5565b5060008773ffffffffffffffffffffffffffffffffffffffff166370a08231306040518263ffffffff167c01000000000000000000000000000000000000000000000000000000000281526004016110239190612140565b60206040518083038186803b15801561103b57600080fd5b505afa15801561104f573d6000803e3d6000fd5b505050506040513d601f19601f820116820180604052508101906110739190611e2c565b90508481116110b7576040517f08c379a00000000000000000000000000000000000000000000000000000000081526004016110ae9061223d565b60405180910390fd5b8481036006819055507f34869f9170b7cd7feed82302929f46dc31417cc806c8bf12091d690b8cb02c1e6004600360065460016040516110fa94939291906121ea565b60405180910390a15050505050505050565b600560009054906101000a900473ffffffffffffffffffffffffffffffffffffffff1673ffffffffffffffffffffffffffffffffffffffff163373ffffffffffffffffffffffffffffffffffffffff161461119c576040517f08c379a00000000000000000000000000000000000000000000000000000000081526004016111939061225d565b60405180910390fd5b3373ffffffffffffffffffffffffffffffffffffffff166108fc3073ffffffffffffffffffffffffffffffffffffffff16319081150290604051600060405180830381858888f193505050501580156111f9573d6000803e3d6000fd5b50565b600160009054906101000a900473ffffffffffffffffffffffffffffffffffffffff1681565b6000808273ffffffffffffffffffffffffffffffffffffffff166370a08231306040518263ffffffff167c010000000000000000000000000000000000000000000000000000000002815260040161127a9190612140565b60206040518083038186803b15801561129257600080fd5b505afa1580156112a6573d6000803e3d6000fd5b505050506040513d601f19601f820116820180604052508101906112ca9190611e2c565b905080915050919050565b60006112e38433308561169a565b6112ee8486846118d7565b6112f6611af5565b6040518061010001604052808673ffffffffffffffffffffffffffffffffffffffff1681526020018573ffffffffffffffffffffffffffffffffffffffff168152602001610bb862ffffff1681526020013073ffffffffffffffffffffffffffffffffffffffff1681526020016104b04201815260200184815260200160008152602001600073ffffffffffffffffffffffffffffffffffffffff1681525090508573ffffffffffffffffffffffffffffffffffffffff1663414bf389826040518263ffffffff167c01000000000000000000000000000000000000000000000000000000000281526004016113ec919061227d565b602060405180830381600087803b15801561140657600080fd5b505af115801561141a573d6000803e3d6000fd5b505050506040513d601f19601f8201168201806040525081019061143e9190611e2c565b915050949350505050565b8273ffffffffffffffffffffffffffffffffffffffff1663095ea7b385836040518363ffffffff167c01000000000000000000000000000000000000000000000000000000000281526004016114a0929190612184565b602060405180830381600087803b1580156114ba57600080fd5b505af11580156114ce573d6000803e3d6000fd5b505050506040513d601f19601f820116820180604052508101906114f29190611db4565b506060600267ffffffffffffffff8111801561150d57600080fd5b5060405190808252806020026020018201604052801561153c5781602001602082028036833780820191505090505b509050838160008151811061154d57fe5b602002602001019073ffffffffffffffffffffffffffffffffffffffff16908173ffffffffffffffffffffffffffffffffffffffff1681525050828160018151811061159557fe5b602002602001019073ffffffffffffffffffffffffffffffffffffffff16908173ffffffffffffffffffffffffffffffffffffffff16815250508473ffffffffffffffffffffffffffffffffffffffff166338ed1739836115f888888888610b05565b84306104b042016040518663ffffffff167c010000000000000000000000000000000000000000000000000000000002815260040161163b9594939291906122ff565b600060405180830381600087803b15801561165557600080fd5b505af1158015611669573d6000803e3d6000fd5b505050506040513d6000823e3d601f19601f820116820180604052508101906116929190611d73565b505050505050565b600060608573ffffffffffffffffffffffffffffffffffffffff166323b872dd7c010000000000000000000000000000000000000000000000000000000002868686604051602401808473ffffffffffffffffffffffffffffffffffffffff1681526020018373ffffffffffffffffffffffffffffffffffffffff1681526020018281526020019350505050604051602081830303815290604052907bffffffffffffffffffffffffffffffffffffffffffffffffffffffff19166020820180517bffffffffffffffffffffffffffffffffffffffffffffffffffffffff83818316178352505050506040518082805190602001908083835b602083106117b65780518252602082019150602081019050602083039250611793565b6001836020036101000a0380198251168184511680821785525050505050509050019150506000604051808303816000865af19150503d8060008114611818576040519150601f19603f3d011682016040523d82523d6000602084013e61181d565b606091505b509150915081801561185d575060008151148061185c575080806020019051602081101561184a57600080fd5b81019080805190602001909291905050505b5b6118cf576040517f08c379a00000000000000000000000000000000000000000000000000000000081526004018080602001828103825260038152602001807f535446000000000000000000000000000000000000000000000000000000000081525060200191505060405180910390fd5b505050505050565b600060608473ffffffffffffffffffffffffffffffffffffffff1663095ea7b37c0100000000000000000000000000000000000000000000000000000000028585604051602401808373ffffffffffffffffffffffffffffffffffffffff16815260200182815260200192505050604051602081830303815290604052907bffffffffffffffffffffffffffffffffffffffffffffffffffffffff19166020820180517bffffffffffffffffffffffffffffffffffffffffffffffffffffffff83818316178352505050506040518082805190602001908083835b602083106119d557805182526020820191506020810190506020830392506119b2565b6001836020036101000a0380198251168184511680821785525050505050509050019150506000604051808303816000865af19150503d8060008114611a37576040519150601f19603f3d011682016040523d82523d6000602084013e611a3c565b606091505b5091509150818015611a7c5750600081511480611a7b5750808060200190516020811015611a6957600080fd5b81019080805190602001909291905050505b5b611aee576040517f08c379a00000000000000000000000000000000000000000000000000000000081526004018080602001828103825260028152602001807f534100000000000000000000000000000000000000000000000000000000000081525060200191505060405180910390fd5b5050505050565b604051806101000160405280600073ffffffffffffffffffffffffffffffffffffffff168152602001600073ffffffffffffffffffffffffffffffffffffffff168152602001600062ffffff168152602001600073ffffffffffffffffffffffffffffffffffffffff168152602001600081526020016000815260200160008152602001600073ffffffffffffffffffffffffffffffffffffffff1681525090565b600081359050611ba681612578565b92915050565b600082601f830112611bbd57600080fd5b8151611bd0611bcb826123c1565b612390565b91508181835260208401935060208101905083856020840282011115611bf557600080fd5b60005b83811015611c255781611c0b8882611c6e565b845260208401935060208301925050600181019050611bf8565b5050505092915050565b600081519050611c3e8161258f565b92915050565b600081519050611c53816125a6565b92915050565b600081359050611c68816125bd565b92915050565b600081519050611c7d816125bd565b92915050565b600081519050611c92816125d4565b92915050565b600060208284031215611caa57600080fd5b6000611cb884828501611b97565b91505092915050565b60008060008060808587031215611cd757600080fd5b6000611ce587828801611b97565b9450506020611cf687828801611b97565b9350506040611d0787828801611b97565b9250506060611d1887828801611c59565b91505092959194509250565b600080600060608486031215611d3957600080fd5b6000611d4786828701611b97565b9350506020611d5886828701611b97565b9250506040611d6986828701611c59565b9150509250925092565b600060208284031215611d8557600080fd5b600082015167ffffffffffffffff811115611d9f57600080fd5b611dab84828501611bac565b91505092915050565b600060208284031215611dc657600080fd5b6000611dd484828501611c2f565b91505092915050565b600080600060608486031215611df257600080fd5b6000611e0086828701611c44565b9350506020611e1186828701611c44565b9250506040611e2286828701611c83565b9150509250925092565b600060208284031215611e3e57600080fd5b6000611e4c84828501611c6e565b91505092915050565b6000611e618383611e7c565b60208301905092915050565b611e76816124d8565b82525050565b611e8581612457565b82525050565b611e9481612457565b82525050565b6000611ea582612412565b611eaf8185612435565b9350611eba836123ed565b8060005b83811015611eeb578151611ed28882611e55565b9750611edd83612428565b925050600181019050611ebe565b5085935050505092915050565b611f0181612469565b82525050565b611f10816124ea565b82525050565b6000611f218261241d565b611f2b8185612446565b9350611f3b818560208601612532565b611f4481612567565b840191505092915050565b600081546001811660008114611f6c5760018114611f9257611fd6565b607f6002830416611f7d8187612446565b955060ff198316865260208601935050611fd6565b60028204611fa08187612446565b9550611fab856123fd565b60005b82811015611fcd57815481890152600182019150602081019050611fae565b80880195505050505b505092915050565b6000611feb601e83612446565b91507f54726164652052657665727465642c204e6f2050726f666974204d61646500006000830152602082019050919050565b600061202b600083612446565b9150600082019050919050565b6101008201600082015161204f6000850182611e7c565b5060208201516120626020850182611e7c565b50604082015161207560408501826120e9565b5060608201516120886060850182611e7c565b50608082015161209b6080850182612107565b5060a08201516120ae60a0850182612107565b5060c08201516120c160c0850182612107565b5060e08201516120d460e08501826120da565b50505050565b6120e38161248f565b82525050565b6120f2816124af565b82525050565b612101816124af565b82525050565b612110816124be565b82525050565b61211f816124be565b82525050565b600060208201905061213a6000830184611e8b565b92915050565b60006020820190506121556000830184611e6d565b92915050565b60006040820190506121706000830185611e6d565b61217d6020830184612116565b9392505050565b60006040820190506121996000830185611e8b565b6121a66020830184612116565b9392505050565b60006020820190506121c26000830184611f07565b92915050565b600060208201905081810360008301526121e28184611f16565b905092915050565b600060808201905081810360008301526122048187611f4f565b905081810360208301526122188186611f4f565b90506122276040830185612116565b6122346060830184611ef8565b95945050505050565b6000602082019050818103600083015261225681611fde565b9050919050565b600060208201905081810360008301526122768161201e565b9050919050565b6000610100820190506122936000830184612038565b92915050565b60006020820190506122ae60008301846120f8565b92915050565b60006020820190506122c96000830184612116565b92915050565b60006040820190506122e46000830185612116565b81810360208301526122f68184611e9a565b90509392505050565b600060a0820190506123146000830188612116565b6123216020830187612116565b81810360408301526123338186611e9a565b90506123426060830185611e6d565b61234f6080830184612116565b9695505050505050565b600060608201905061236e6000830186612116565b61237b6020830185612116565b6123886040830184612116565b949350505050565b6000604051905081810181811067ffffffffffffffff821117156123b7576123b6612565565b5b8060405250919050565b600067ffffffffffffffff8211156123dc576123db612565565b5b602082029050602081019050919050565b6000819050602082019050919050565b60008190508160005260206000209050919050565b600081519050919050565b600081519050919050565b6000602082019050919050565b600082825260208201905092915050565b600082825260208201905092915050565b60006124628261248f565b9050919050565b60008115159050919050565b60006dffffffffffffffffffffffffffff82169050919050565b600073ffffffffffffffffffffffffffffffffffffffff82169050919050565b600062ffffff82169050919050565b6000819050919050565b600063ffffffff82169050919050565b60006124e38261250e565b9050919050565b60006124f5826124fc565b9050919050565b60006125078261248f565b9050919050565b600061251982612520565b9050919050565b600061252b8261248f565b9050919050565b60005b83811015612550578082015181840152602081019050612535565b8381111561255f576000848401525b50505050565bfe5b6000601f19601f8301169050919050565b61258181612457565b811461258c57600080fd5b50565b61259881612469565b81146125a357600080fd5b50565b6125af81612475565b81146125ba57600080fd5b50565b6125c6816124be565b81146125d157600080fd5b50565b6125dd816124c8565b81146125e857600080fd5b5056fea2646970667358221220adf0096384036830c5affba430d7632b5a161201dbebc9f689f675f383bd14fc64736f6c63430007050033",
  "immutableReferences": {},
  "source": "//SPDX-License-Identifier: UNLICENSED\r\npragma solidity >=0.7.0 <0.9.0;\r\npragma abicoder v2;\r\n\r\n\r\nimport \"@uniswap/v3-core/contracts/interfaces/pool/IUniswapV3PoolImmutables.sol\";\r\nimport '@uniswap/v3-periphery/contracts/interfaces/ISwapRouter.sol';\r\nimport '@uniswap/v3-periphery/contracts/libraries/TransferHelper.sol';\r\nimport  '@uniswap/v2-periphery/contracts/interfaces/IUniswapV2Router02.sol';\r\nimport '@uniswap/v2-core/contracts/interfaces/IUniswapV2Pair.sol';\r\nimport '@uniswap/v2-periphery/contracts/interfaces/IUniswapV2Router01.sol';\r\nimport '@uniswap/v2-core/contracts/interfaces/IUniswapV2Factory.sol';\r\nimport \"@uniswap/v3-core/contracts/interfaces/IERC20Minimal.sol\";\r\nimport \"@uniswap/v2-core/contracts/interfaces/IUniswapV2Pair.sol\";\r\n\r\ncontract ArbitrageBot {\r\n  string public name;\r\n  ISwapRouter public swapRouter;\r\n  address public Router2;\r\n \r\n\r\n\r\n    uint constant deadline = 20 minutes; // transaction deadline\r\n   \r\n    string base;\r\n    string assest;\r\n    address public owner;\r\n    uint profit;\r\n\r\n    \r\n  // For this example, we will set the pool fee to 0.3%.\r\n  uint24 public constant poolFee = 3000;\r\n\r\n  \r\n     event TradeSucces(\r\n          string assest,\r\n          string base,\r\n          uint profit,\r\n          bool success\r\n     );\r\n\r\n\r\n      mapping(address => uint) _balance;\r\n      \r\n     \r\n\r\n\r\n  constructor( ISwapRouter _Router1, address _Router2) {\r\n      swapRouter = _Router1;\r\n      Router2 = _Router2;\r\n      name=\"Arbitrage Bot\";\r\n     \r\n      owner=msg.sender;\r\n\r\n  }\r\n   modifier onlyOwner(){\r\n      require(msg.sender==owner,\"\");\r\n          _;\r\n     }\r\n\r\n   function getAmountOutMin( address _router,address _token1, address _token2, uint256 _amount)  public view returns (uint256) {\r\n\t      \taddress[] memory path;\r\n\t      \tpath = new address[](2);\r\n\t      \tpath[0] = _token1;\r\n\t      \tpath[1] = _token2;\r\n\t      \tuint256[] memory amountOutMins = IUniswapV2Router02(address(_router)).getAmountsOut(_amount, path);\r\n\t      \t\r\n            return  amountOutMins[path.length -1];\r\n             \r\n      }\r\n\r\n  function getSushiswapReserve(address _pairAddress) public view returns(uint, uint, uint){\r\n      (uint reserve1,uint reserve2,uint time)=IUniswapV2Pair(address(_pairAddress)).getReserves();\r\n     \r\n      return (reserve1,reserve2,time);\r\n\r\n  }\r\n\r\n     // for uniswap\r\n  function swapExactInputSingle(ISwapRouter _swapRouter,address _tokenIn, address _tokenOut,uint256 _amountIn) internal returns (uint256 amountOut) {\r\n      \r\n\r\n      // Transfer the specified amount of DAI to this contract.\r\n      TransferHelper.safeTransferFrom(_tokenIn, msg.sender, address(this), _amountIn);\r\n\r\n      // Approve the router to spend DAI.\r\n      TransferHelper.safeApprove(_tokenIn, address(_swapRouter), _amountIn);\r\n\r\n      // Naively set amountOutMinimum to 0. In production, use an oracle or other data source to choose a safer value for amountOutMinimum.\r\n      // We also set the sqrtPriceLimitx96 to be 0 to ensure we swap our exact input amount.\r\n      ISwapRouter.ExactInputSingleParams memory params =\r\n          ISwapRouter.ExactInputSingleParams({\r\n              tokenIn: _tokenIn,\r\n              tokenOut: _tokenOut,\r\n              fee: poolFee,\r\n              recipient: address(this),\r\n              deadline: block.timestamp + deadline,\r\n              amountIn:_amountIn,\r\n              amountOutMinimum:0,\r\n              sqrtPriceLimitX96: 0\r\n          });\r\n\r\n      // The call to `exactInputSingle` executes the swap.\r\n      amountOut = _swapRouter.exactInputSingle(params);\r\n  }\r\n      // for sushiswap\r\n  \r\n\tfunction swapToken(address _router, address _tokenIn, address _tokenOut, uint256 _amountIn) private {\r\n\t\tIERC20Minimal(_tokenIn).approve(_router, _amountIn);\r\n\t\taddress[] memory path;\r\n\t\tpath = new address[](2);\r\n\t\tpath[0] = _tokenIn;\r\n\t\tpath[1] = _tokenOut;\r\n\t\r\n\t\tIUniswapV2Router02(_router).swapExactTokensForTokens(_amountIn, getAmountOutMin(_router,_tokenIn,_tokenOut,_amountIn), path, address(this), block.timestamp + deadline);\r\n\t}\r\n\r\n\r\n   function UniswapToSushiwapTrade(address _token1, address _token2, uint256 _amount) external onlyOwner {\r\n        uint startBalance = IERC20Minimal(_token1).balanceOf(address(this));\r\n        uint token2InitialBalance = IERC20Minimal(_token2).balanceOf(address(this));\r\n        \r\n        swapExactInputSingle(swapRouter,_token1, _token2,_amount);\r\n        uint token2Balance = IERC20Minimal(_token2).balanceOf(address(this));\r\n        uint tradeableAmount = token2Balance - token2InitialBalance;\r\n        swapToken(Router2,_token2, _token1,tradeableAmount);\r\n        uint endBalance = IERC20Minimal(_token1).balanceOf(address(this));\r\n       require(endBalance > startBalance, \"Trade Reverted, No Profit Made\");\r\n       profit= endBalance -startBalance;\r\n       emit TradeSucces(assest,base,profit,true);\r\n   }\r\n    function SushiwapToUniswapTrade(address _token1, address _token2, uint256 _amount) external onlyOwner {\r\n        uint startBalance = IERC20Minimal(_token1).balanceOf(address(this));\r\n        uint token2InitialBalance = IERC20Minimal(_token2).balanceOf(address(this));\r\n        \r\n        swapToken(Router2,_token1, _token2,_amount);\r\n        uint token2Balance = IERC20Minimal(_token2).balanceOf(address(this));\r\n        uint tradeableAmount = token2Balance - token2InitialBalance;\r\n       swapExactInputSingle(swapRouter,_token2, _token1,tradeableAmount);\r\n        uint endBalance = IERC20Minimal(_token1).balanceOf(address(this));\r\n       require(endBalance > startBalance, \"Trade Reverted, No Profit Made\");\r\n       profit= endBalance -startBalance;\r\n       emit TradeSucces(assest,base,profit,true);\r\n   }\r\n\r\n     function getBalance (address _tokenContractAddress) external view  returns (uint256) {\r\n\t\tuint balance = IERC20Minimal(_tokenContractAddress).balanceOf(address(this));\r\n\t\treturn balance;\r\n\t}\r\n\t\tfunction recoverEth() external onlyOwner {\r\n\t\tpayable(msg.sender).transfer(address(this).balance);\r\n\t}\r\n    \r\n    \r\n\tfunction recoverTokens(address tokenAddress) external onlyOwner {\r\n\t     IERC20Minimal token = IERC20Minimal(tokenAddress);\r\n\t\ttoken.transfer(msg.sender, token.balanceOf(address(this)));\r\n     \t}\r\n   \r\n     receive ()  payable external{\r\n      _balance[msg.sender] += msg.value;\r\n\r\n    }\r\n\r\n\r\n\r\n}",
  "sourcePath": "C:/Users/user/trading-bots/contracts/arbitragebot.sol",
  "compiler": {
    "name": "solc",
    "version": "0.7.5+commit.eb77ed08.Emscripten.clang"
  },
  "schemaVersion": "3.4.1",
  "updatedAt": "2022-04-23T16:53:44.646Z",
  "devdoc": {
    "kind": "dev",
    "methods": {},
    "version": 1
  },
  "userdoc": {
    "kind": "user",
    "methods": {},
    "version": 1
  }
}